{
  "contractName": "CertificateContract",
  "abi": [
    {
      "inputs": [
        {
          "internalType": "string",
          "name": "registerNumber",
          "type": "string"
        },
        {
          "internalType": "string",
          "name": "studentName",
          "type": "string"
        },
        {
          "internalType": "string",
          "name": "institution",
          "type": "string"
        },
        {
          "internalType": "uint16",
          "name": "yearOfAdmission",
          "type": "uint16"
        },
        {
          "internalType": "uint16",
          "name": "monthAndYearOfPassing",
          "type": "uint16"
        },
        {
          "internalType": "uint8",
          "name": "cgpa",
          "type": "uint8"
        },
        {
          "internalType": "string[][]",
          "name": "subjectNames",
          "type": "string[][]"
        },
        {
          "internalType": "uint8[][]",
          "name": "subjectCredits",
          "type": "uint8[][]"
        },
        {
          "internalType": "uint8[][]",
          "name": "subjectGrades",
          "type": "uint8[][]"
        },
        {
          "internalType": "uint16[]",
          "name": "subjectExamMonths",
          "type": "uint16[]"
        },
        {
          "internalType": "uint16[]",
          "name": "subjectExamYears",
          "type": "uint16[]"
        }
      ],
      "name": "issueCertificate",
      "outputs": [],
      "stateMutability": "nonpayable",
      "type": "function"
    },
    {
      "inputs": [
        {
          "internalType": "string",
          "name": "registerNumber",
          "type": "string"
        }
      ],
      "name": "getCertificateStudentName",
      "outputs": [
        {
          "internalType": "string",
          "name": "",
          "type": "string"
        }
      ],
      "stateMutability": "view",
      "type": "function",
      "constant": true
    },
    {
      "inputs": [
        {
          "internalType": "string",
          "name": "registerNumber",
          "type": "string"
        }
      ],
      "name": "getCertificateRegisterNumber",
      "outputs": [
        {
          "internalType": "string",
          "name": "",
          "type": "string"
        }
      ],
      "stateMutability": "view",
      "type": "function",
      "constant": true
    },
    {
      "inputs": [
        {
          "internalType": "string",
          "name": "registerNumber",
          "type": "string"
        }
      ],
      "name": "getCertificateInstitution",
      "outputs": [
        {
          "internalType": "string",
          "name": "",
          "type": "string"
        }
      ],
      "stateMutability": "view",
      "type": "function",
      "constant": true
    },
    {
      "inputs": [
        {
          "internalType": "string",
          "name": "registerNumber",
          "type": "string"
        }
      ],
      "name": "getCertificateYearOfAdmission",
      "outputs": [
        {
          "internalType": "uint16",
          "name": "",
          "type": "uint16"
        }
      ],
      "stateMutability": "view",
      "type": "function",
      "constant": true
    },
    {
      "inputs": [
        {
          "internalType": "string",
          "name": "registerNumber",
          "type": "string"
        }
      ],
      "name": "getCertificateMonthAndYearOfPassing",
      "outputs": [
        {
          "internalType": "uint16",
          "name": "",
          "type": "uint16"
        }
      ],
      "stateMutability": "view",
      "type": "function",
      "constant": true
    },
    {
      "inputs": [
        {
          "internalType": "string",
          "name": "registerNumber",
          "type": "string"
        }
      ],
      "name": "getCertificateCGPA",
      "outputs": [
        {
          "internalType": "uint8",
          "name": "",
          "type": "uint8"
        }
      ],
      "stateMutability": "view",
      "type": "function",
      "constant": true
    },
    {
      "inputs": [
        {
          "internalType": "string",
          "name": "registerNumber",
          "type": "string"
        },
        {
          "internalType": "uint8",
          "name": "semesterIndex",
          "type": "uint8"
        },
        {
          "internalType": "string",
          "name": "subjectName",
          "type": "string"
        }
      ],
      "name": "getSubjectCredits",
      "outputs": [
        {
          "internalType": "uint8",
          "name": "",
          "type": "uint8"
        }
      ],
      "stateMutability": "view",
      "type": "function",
      "constant": true
    },
    {
      "inputs": [
        {
          "internalType": "string",
          "name": "registerNumber",
          "type": "string"
        },
        {
          "internalType": "uint8",
          "name": "semesterIndex",
          "type": "uint8"
        },
        {
          "internalType": "string",
          "name": "subjectName",
          "type": "string"
        }
      ],
      "name": "getSubjectGrade",
      "outputs": [
        {
          "internalType": "uint8",
          "name": "",
          "type": "uint8"
        }
      ],
      "stateMutability": "view",
      "type": "function",
      "constant": true
    },
    {
      "inputs": [
        {
          "internalType": "string",
          "name": "registerNumber",
          "type": "string"
        },
        {
          "internalType": "uint8",
          "name": "semesterIndex",
          "type": "uint8"
        },
        {
          "internalType": "string",
          "name": "subjectName",
          "type": "string"
        }
      ],
      "name": "getSubjectExamMonth",
      "outputs": [
        {
          "internalType": "uint16",
          "name": "",
          "type": "uint16"
        }
      ],
      "stateMutability": "view",
      "type": "function",
      "constant": true
    },
    {
      "inputs": [
        {
          "internalType": "string",
          "name": "registerNumber",
          "type": "string"
        },
        {
          "internalType": "uint8",
          "name": "semesterIndex",
          "type": "uint8"
        },
        {
          "internalType": "string",
          "name": "subjectName",
          "type": "string"
        }
      ],
      "name": "getSubjectExamYear",
      "outputs": [
        {
          "internalType": "uint16",
          "name": "",
          "type": "uint16"
        }
      ],
      "stateMutability": "view",
      "type": "function",
      "constant": true
    },
    {
      "inputs": [
        {
          "internalType": "string",
          "name": "registerNumber",
          "type": "string"
        },
        {
          "internalType": "uint8",
          "name": "semesterIndex",
          "type": "uint8"
        }
      ],
      "name": "getSubjectNames",
      "outputs": [
        {
          "internalType": "string[]",
          "name": "",
          "type": "string[]"
        }
      ],
      "stateMutability": "view",
      "type": "function",
      "constant": true
    }
  ],
  "bytecode": "0x608060405234801561001057600080fd5b50611b3e806100206000396000f3fe608060405234801561001057600080fd5b50600436106100b45760003560e01c8063acc30fd411610071578063acc30fd4146101c5578063b0d064e9146101f5578063b14b18b014610225578063b64e685e14610255578063ca84cd6514610285578063d30d5383146102b5576100b4565b8063334cdc9e146100b95780634d7c0c47146100e95780638a56fa1e1461010557806397263fc414610135578063a46e325714610165578063a476081c14610195575b600080fd5b6100d360048036038101906100ce9190610d6f565b6102e5565b6040516100e09190610e17565b60405180910390f35b61010360048036038101906100fe919061128c565b610358565b005b61011f600480360381019061011a9190611460565b6106b0565b60405161012c9190611528565b60405180910390f35b61014f600480360381019061014a9190610d6f565b610763565b60405161015c9190611559565b60405180910390f35b61017f600480360381019061017a9190611574565b6107d5565b60405161018c91906116dc565b60405180910390f35b6101af60048036038101906101aa9190611460565b6108ea565b6040516101bc9190611528565b60405180910390f35b6101df60048036038101906101da9190611460565b61099d565b6040516101ec9190611559565b60405180910390f35b61020f600480360381019061020a9190611460565b6109d4565b60405161021c9190610e17565b60405180910390f35b61023f600480360381019061023a9190611460565b610a0c565b60405161024c9190610e17565b60405180910390f35b61026f600480360381019061026a9190610d6f565b610a44565b60405161027c9190611559565b60405180910390f35b61029f600480360381019061029a9190611460565b610ab6565b6040516102ac9190611528565b60405180910390f35b6102cf60048036038101906102ca9190610d6f565b610b69565b6040516102dc9190610e17565b60405180910390f35b600080846040516102f6919061173a565b908152602001604051809103902060040160008460ff1660ff1681526020019081526020016000206000018260405161032f919061173a565b908152602001604051809103902060010160049054906101000a900461ffff1690509392505050565b6000808c604051610369919061173a565b9081526020016040518091039020905060008190508c81600101908161038f9190611967565b508b8160000190816103a19190611967565b508a8160020190816103b39190611967565b50898160030160006101000a81548161ffff021916908361ffff160217905550888160030160026101000a81548161ffff021916908361ffff160217905550878160030160066101000a81548160ff021916908360ff16021790555060005b87518160ff1610156106a05760008260040160008360ff1660ff168152602001908152602001600020905060005b898360ff168151811061045657610455611a39565b5b60200260200101515181101561068b5760008a8460ff168151811061047e5761047d611a39565b5b6020026020010151828151811061049857610497611a39565b5b602002602001015190506040518060a001604052808281526020018b8660ff16815181106104c9576104c8611a39565b5b602002602001015184815181106104e3576104e2611a39565b5b602002602001015160ff1681526020018a8660ff168151811061050957610508611a39565b5b6020026020010151848151811061052357610522611a39565b5b602002602001015160ff168152602001898660ff168151811061054957610548611a39565b5b602002602001015161ffff168152602001888660ff16815181106105705761056f611a39565b5b602002602001015161ffff168152508360000182604051610591919061173a565b908152602001604051809103902060008201518160000190816105b49190611967565b5060208201518160010160006101000a81548160ff021916908360ff16021790555060408201518160010160016101000a81548160ff021916908360ff16021790555060608201518160010160026101000a81548161ffff021916908361ffff16021790555060808201518160010160046101000a81548161ffff021916908361ffff16021790555090505082600101819080600181540180825580915050600190039060005260206000200160009091909190915090816106769190611967565b5050808061068390611a97565b915050610440565b5050808061069890611adf565b915050610412565b5050505050505050505050505050565b60606000826040516106c2919061173a565b908152602001604051809103902060020180546106de90611780565b80601f016020809104026020016040519081016040528092919081815260200182805461070a90611780565b80156107575780601f1061072c57610100808354040283529160200191610757565b820191906000526020600020905b81548152906001019060200180831161073a57829003601f168201915b50505050509050919050565b60008084604051610774919061173a565b908152602001604051809103902060040160008460ff1660ff168152602001908152602001600020600001826040516107ad919061173a565b908152602001604051809103902060010160009054906101000a900460ff1690509392505050565b60606000836040516107e7919061173a565b908152602001604051809103902060040160008360ff1660ff168152602001908152602001600020600101805480602002602001604051908101604052809291908181526020016000905b828210156108de57838290600052602060002001805461085190611780565b80601f016020809104026020016040519081016040528092919081815260200182805461087d90611780565b80156108ca5780601f1061089f576101008083540402835291602001916108ca565b820191906000526020600020905b8154815290600101906020018083116108ad57829003601f168201915b505050505081526020019060010190610832565b50505050905092915050565b60606000826040516108fc919061173a565b9081526020016040518091039020600101805461091890611780565b80601f016020809104026020016040519081016040528092919081815260200182805461094490611780565b80156109915780601f1061096657610100808354040283529160200191610991565b820191906000526020600020905b81548152906001019060200180831161097457829003601f168201915b50505050509050919050565b600080826040516109ae919061173a565b908152602001604051809103902060030160069054906101000a900460ff169050919050565b600080826040516109e5919061173a565b908152602001604051809103902060030160009054906101000a900461ffff169050919050565b60008082604051610a1d919061173a565b908152602001604051809103902060030160029054906101000a900461ffff169050919050565b60008084604051610a55919061173a565b908152602001604051809103902060040160008460ff1660ff16815260200190815260200160002060000182604051610a8e919061173a565b908152602001604051809103902060010160019054906101000a900460ff1690509392505050565b6060600082604051610ac8919061173a565b90815260200160405180910390206000018054610ae490611780565b80601f0160208091040260200160405190810160405280929190818152602001828054610b1090611780565b8015610b5d5780601f10610b3257610100808354040283529160200191610b5d565b820191906000526020600020905b815481529060010190602001808311610b4057829003601f168201915b50505050509050919050565b60008084604051610b7a919061173a565b908152602001604051809103902060040160008460ff1660ff16815260200190815260200160002060000182604051610bb3919061173a565b908152602001604051809103902060010160029054906101000a900461ffff1690509392505050565b6000604051905090565b600080fd5b600080fd5b600080fd5b600080fd5b6000601f19601f8301169050919050565b7f4e487b7100000000000000000000000000000000000000000000000000000000600052604160045260246000fd5b610c4382610bfa565b810181811067ffffffffffffffff82111715610c6257610c61610c0b565b5b80604052505050565b6000610c75610bdc565b9050610c818282610c3a565b919050565b600067ffffffffffffffff821115610ca157610ca0610c0b565b5b610caa82610bfa565b9050602081019050919050565b82818337600083830152505050565b6000610cd9610cd484610c86565b610c6b565b905082815260208101848484011115610cf557610cf4610bf5565b5b610d00848285610cb7565b509392505050565b600082601f830112610d1d57610d1c610bf0565b5b8135610d2d848260208601610cc6565b91505092915050565b600060ff82169050919050565b610d4c81610d36565b8114610d5757600080fd5b50565b600081359050610d6981610d43565b92915050565b600080600060608486031215610d8857610d87610be6565b5b600084013567ffffffffffffffff811115610da657610da5610beb565b5b610db286828701610d08565b9350506020610dc386828701610d5a565b925050604084013567ffffffffffffffff811115610de457610de3610beb565b5b610df086828701610d08565b9150509250925092565b600061ffff82169050919050565b610e1181610dfa565b82525050565b6000602082019050610e2c6000830184610e08565b92915050565b610e3b81610dfa565b8114610e4657600080fd5b50565b600081359050610e5881610e32565b92915050565b600067ffffffffffffffff821115610e7957610e78610c0b565b5b602082029050602081019050919050565b600080fd5b600067ffffffffffffffff821115610eaa57610ea9610c0b565b5b602082029050602081019050919050565b6000610ece610ec984610e8f565b610c6b565b90508083825260208201905060208402830185811115610ef157610ef0610e8a565b5b835b81811015610f3857803567ffffffffffffffff811115610f1657610f15610bf0565b5b808601610f238982610d08565b85526020850194505050602081019050610ef3565b5050509392505050565b600082601f830112610f5757610f56610bf0565b5b8135610f67848260208601610ebb565b91505092915050565b6000610f83610f7e84610e5e565b610c6b565b90508083825260208201905060208402830185811115610fa657610fa5610e8a565b5b835b81811015610fed57803567ffffffffffffffff811115610fcb57610fca610bf0565b5b808601610fd88982610f42565b85526020850194505050602081019050610fa8565b5050509392505050565b600082601f83011261100c5761100b610bf0565b5b813561101c848260208601610f70565b91505092915050565b600067ffffffffffffffff8211156110405761103f610c0b565b5b602082029050602081019050919050565b600067ffffffffffffffff82111561106c5761106b610c0b565b5b602082029050602081019050919050565b600061109061108b84611051565b610c6b565b905080838252602082019050602084028301858111156110b3576110b2610e8a565b5b835b818110156110dc57806110c88882610d5a565b8452602084019350506020810190506110b5565b5050509392505050565b600082601f8301126110fb576110fa610bf0565b5b813561110b84826020860161107d565b91505092915050565b600061112761112284611025565b610c6b565b9050808382526020820190506020840283018581111561114a57611149610e8a565b5b835b8181101561119157803567ffffffffffffffff81111561116f5761116e610bf0565b5b80860161117c89826110e6565b8552602085019450505060208101905061114c565b5050509392505050565b600082601f8301126111b0576111af610bf0565b5b81356111c0848260208601611114565b91505092915050565b600067ffffffffffffffff8211156111e4576111e3610c0b565b5b602082029050602081019050919050565b6000611208611203846111c9565b610c6b565b9050808382526020820190506020840283018581111561122b5761122a610e8a565b5b835b8181101561125457806112408882610e49565b84526020840193505060208101905061122d565b5050509392505050565b600082601f83011261127357611272610bf0565b5b81356112838482602086016111f5565b91505092915050565b60008060008060008060008060008060006101608c8e0312156112b2576112b1610be6565b5b60008c013567ffffffffffffffff8111156112d0576112cf610beb565b5b6112dc8e828f01610d08565b9b505060208c013567ffffffffffffffff8111156112fd576112fc610beb565b5b6113098e828f01610d08565b9a505060408c013567ffffffffffffffff81111561132a57611329610beb565b5b6113368e828f01610d08565b99505060606113478e828f01610e49565b98505060806113588e828f01610e49565b97505060a06113698e828f01610d5a565b96505060c08c013567ffffffffffffffff81111561138a57611389610beb565b5b6113968e828f01610ff7565b95505060e08c013567ffffffffffffffff8111156113b7576113b6610beb565b5b6113c38e828f0161119b565b9450506101008c013567ffffffffffffffff8111156113e5576113e4610beb565b5b6113f18e828f0161119b565b9350506101208c013567ffffffffffffffff81111561141357611412610beb565b5b61141f8e828f0161125e565b9250506101408c013567ffffffffffffffff81111561144157611440610beb565b5b61144d8e828f0161125e565b9150509295989b509295989b9093969950565b60006020828403121561147657611475610be6565b5b600082013567ffffffffffffffff81111561149457611493610beb565b5b6114a084828501610d08565b91505092915050565b600081519050919050565b600082825260208201905092915050565b60005b838110156114e35780820151818401526020810190506114c8565b60008484015250505050565b60006114fa826114a9565b61150481856114b4565b93506115148185602086016114c5565b61151d81610bfa565b840191505092915050565b6000602082019050818103600083015261154281846114ef565b905092915050565b61155381610d36565b82525050565b600060208201905061156e600083018461154a565b92915050565b6000806040838503121561158b5761158a610be6565b5b600083013567ffffffffffffffff8111156115a9576115a8610beb565b5b6115b585828601610d08565b92505060206115c685828601610d5a565b9150509250929050565b600081519050919050565b600082825260208201905092915050565b6000819050602082019050919050565b600082825260208201905092915050565b6000611618826114a9565b61162281856115fc565b93506116328185602086016114c5565b61163b81610bfa565b840191505092915050565b6000611652838361160d565b905092915050565b6000602082019050919050565b6000611672826115d0565b61167c81856115db565b93508360208202850161168e856115ec565b8060005b858110156116ca57848403895281516116ab8582611646565b94506116b68361165a565b925060208a01995050600181019050611692565b50829750879550505050505092915050565b600060208201905081810360008301526116f68184611667565b905092915050565b600081905092915050565b6000611714826114a9565b61171e81856116fe565b935061172e8185602086016114c5565b80840191505092915050565b60006117468284611709565b915081905092915050565b7f4e487b7100000000000000000000000000000000000000000000000000000000600052602260045260246000fd5b6000600282049050600182168061179857607f821691505b6020821081036117ab576117aa611751565b5b50919050565b60008190508160005260206000209050919050565b60006020601f8301049050919050565b600082821b905092915050565b6000600883026118137fffffffffffffffffffffffffffffffffffffffffffffffffffffffffffffffff826117d6565b61181d86836117d6565b95508019841693508086168417925050509392505050565b6000819050919050565b6000819050919050565b600061186461185f61185a84611835565b61183f565b611835565b9050919050565b6000819050919050565b61187e83611849565b61189261188a8261186b565b8484546117e3565b825550505050565b600090565b6118a761189a565b6118b2818484611875565b505050565b5b818110156118d6576118cb60008261189f565b6001810190506118b8565b5050565b601f82111561191b576118ec816117b1565b6118f5846117c6565b81016020851015611904578190505b611918611910856117c6565b8301826118b7565b50505b505050565b600082821c905092915050565b600061193e60001984600802611920565b1980831691505092915050565b6000611957838361192d565b9150826002028217905092915050565b611970826114a9565b67ffffffffffffffff81111561198957611988610c0b565b5b6119938254611780565b61199e8282856118da565b600060209050601f8311600181146119d157600084156119bf578287015190505b6119c9858261194b565b865550611a31565b601f1984166119df866117b1565b60005b82811015611a07578489015182556001820191506020850194506020810190506119e2565b86831015611a245784890151611a20601f89168261192d565b8355505b6001600288020188555050505b505050505050565b7f4e487b7100000000000000000000000000000000000000000000000000000000600052603260045260246000fd5b7f4e487b7100000000000000000000000000000000000000000000000000000000600052601160045260246000fd5b6000611aa282611835565b91507fffffffffffffffffffffffffffffffffffffffffffffffffffffffffffffffff8203611ad457611ad3611a68565b5b600182019050919050565b6000611aea82610d36565b915060ff8203611afd57611afc611a68565b5b60018201905091905056fea26469706673582212201aafe0b31e9f616918aa63ee55b3e75d9248883d0fe4632f0c06953cefc8892564736f6c63430008130033",
  "immutableReferences": {},
  "source": "// SPDX-License-Identifier: MIT\r\npragma solidity ^0.8.0;\r\n\r\ncontract CertificateContract {\r\n    struct Subject {\r\n        string name;\r\n        uint8 credits;\r\n        uint8 grade;\r\n        uint16 examMonth;\r\n        uint16 examYear;\r\n    }\r\n\r\n    struct Semester {\r\n        mapping(string => Subject) subjects;\r\n        string[] subjectNames; // New array to store subject names\r\n    }\r\n\r\n    struct Certificate {\r\n        string studentName;\r\n        string registerNumber;\r\n        string institution;\r\n        uint16 yearOfAdmission;\r\n        uint16 monthAndYearOfPassing;\r\n        uint16 totalCredits;\r\n        uint8 cgpa;\r\n        mapping(uint8 => Semester) semesters;\r\n    }\r\n\r\n    mapping(string => Certificate) certificates;\r\n\r\n    function issueCertificate(\r\n        string memory registerNumber,\r\n        string memory studentName,\r\n        string memory institution,\r\n        uint16 yearOfAdmission,\r\n        uint16 monthAndYearOfPassing,\r\n        uint8 cgpa,\r\n        string[][] memory subjectNames,\r\n        uint8[][] memory subjectCredits,\r\n        uint8[][] memory subjectGrades,\r\n        uint16[] memory subjectExamMonths,\r\n        uint16[] memory subjectExamYears\r\n    ) external {\r\n        Certificate storage certificate = certificates[registerNumber];\r\n        Certificate storage cert = certificate; // Temporary variable to reduce stack depth\r\n\r\n        cert.registerNumber = registerNumber;\r\n        cert.studentName = studentName;\r\n        cert.institution = institution;\r\n        cert.yearOfAdmission = yearOfAdmission;\r\n        cert.monthAndYearOfPassing = monthAndYearOfPassing;\r\n        cert.cgpa = cgpa;\r\n\r\n        for (uint8 i = 0; i < subjectNames.length; i++) {\r\n            Semester storage semester = cert.semesters[i];\r\n            for (uint256 j = 0; j < subjectNames[i].length; j++) {\r\n                string memory subjectName = subjectNames[i][j];\r\n                semester.subjects[subjectName] = Subject(\r\n                    subjectName,\r\n                    subjectCredits[i][j],\r\n                    subjectGrades[i][j],\r\n                    subjectExamMonths[i],\r\n                    subjectExamYears[i]\r\n                );\r\n                semester.subjectNames.push(subjectName); // Store subject names in the array\r\n            }\r\n        }\r\n    }\r\n\r\n    function getCertificateStudentName(string memory registerNumber) external view returns (string memory) {\r\n        return certificates[registerNumber].studentName;\r\n    }\r\n\r\n    function getCertificateRegisterNumber(string memory registerNumber) external view returns (string memory) {\r\n        return certificates[registerNumber].registerNumber;\r\n    }\r\n\r\n    function getCertificateInstitution(string memory registerNumber) external view returns (string memory) {\r\n        return certificates[registerNumber].institution;\r\n    }\r\n\r\n    function getCertificateYearOfAdmission(string memory registerNumber) external view returns (uint16) {\r\n        return certificates[registerNumber].yearOfAdmission;\r\n    }\r\n\r\n    function getCertificateMonthAndYearOfPassing(string memory registerNumber) external view returns (uint16) {\r\n        return certificates[registerNumber].monthAndYearOfPassing;\r\n    }\r\n\r\n    function getCertificateCGPA(string memory registerNumber) external view returns (uint8) {\r\n        return certificates[registerNumber].cgpa;\r\n    }\r\n\r\n    function getSubjectCredits(\r\n        string memory registerNumber,\r\n        uint8 semesterIndex,\r\n        string memory subjectName\r\n    ) external view returns (uint8) {\r\n        return certificates[registerNumber].semesters[semesterIndex].subjects[subjectName].credits;\r\n    }\r\n\r\n    function getSubjectGrade(\r\n        string memory registerNumber,\r\n        uint8 semesterIndex,\r\n        string memory subjectName\r\n    ) external view returns (uint8) {\r\n        return certificates[registerNumber].semesters[semesterIndex].subjects[subjectName].grade;\r\n    }\r\n\r\n    function getSubjectExamMonth(\r\n        string memory registerNumber,\r\n        uint8 semesterIndex,\r\n        string memory subjectName\r\n    ) external view returns (uint16) {\r\n        return certificates[registerNumber].semesters[semesterIndex].subjects[subjectName].examMonth;\r\n    }\r\n\r\n    function getSubjectExamYear(\r\n        string memory registerNumber,\r\n        uint8 semesterIndex,\r\n        string memory subjectName\r\n    ) external view returns (uint16) {\r\n        return certificates[registerNumber].semesters[semesterIndex].subjects[subjectName].examYear;\r\n    }\r\n\r\n    function getSubjectNames(string memory registerNumber, uint8 semesterIndex)\r\n        external\r\n        view\r\n        returns (string[] memory)\r\n    {\r\n        return certificates[registerNumber].semesters[semesterIndex].subjectNames;\r\n    }\r\n}\r\n",
  "sourcePath": "C:\\Users\\sajia\\Desktop\\S6-Mini-Project\\truffle\\contracts\\CertificateContract.sol",
  "compiler": {
    "name": "solc",
    "version": "0.8.19+commit.7dd6d404.Emscripten.clang"
  },
  "schemaVersion": "3.4.14",
  "updatedAt": "2023-06-14T08:30:17.894Z",
  "networkType": "ethereum",
  "devdoc": {
    "kind": "dev",
    "methods": {},
    "version": 1
  },
  "userdoc": {
    "kind": "user",
    "methods": {},
    "version": 1
  }
}