{
  "contractName": "CertificateContract",
  "abi": [
    {
      "inputs": [
        {
          "internalType": "string",
          "name": "registerNumber",
          "type": "string"
        }
      ],
      "name": "checkCertificateExists",
      "outputs": [
        {
          "internalType": "bool",
          "name": "",
          "type": "bool"
        }
      ],
      "stateMutability": "view",
      "type": "function",
      "constant": true
    },
    {
      "inputs": [
        {
          "internalType": "string",
          "name": "registerNumber",
          "type": "string"
        },
        {
          "internalType": "string",
          "name": "studentName",
          "type": "string"
        },
        {
          "internalType": "string",
          "name": "institution",
          "type": "string"
        },
        {
          "internalType": "uint16",
          "name": "yearOfAdmission",
          "type": "uint16"
        },
        {
          "internalType": "string",
          "name": "monthAndYearOfPassing",
          "type": "string"
        },
        {
          "internalType": "string",
          "name": "cgpa",
          "type": "string"
        },
        {
          "internalType": "string[][]",
          "name": "subjectNames",
          "type": "string[][]"
        },
        {
          "internalType": "uint8[][]",
          "name": "subjectCredits",
          "type": "uint8[][]"
        },
        {
          "internalType": "string[][]",
          "name": "subjectGrades",
          "type": "string[][]"
        },
        {
          "internalType": "string[][]",
          "name": "subjectExamMonths",
          "type": "string[][]"
        },
        {
          "internalType": "uint16[][]",
          "name": "subjectExamYears",
          "type": "uint16[][]"
        }
      ],
      "name": "issueCertificate",
      "outputs": [],
      "stateMutability": "nonpayable",
      "type": "function"
    },
    {
      "inputs": [
        {
          "internalType": "string",
          "name": "registerNumber",
          "type": "string"
        }
      ],
      "name": "getCertificateStudentName",
      "outputs": [
        {
          "internalType": "string",
          "name": "",
          "type": "string"
        }
      ],
      "stateMutability": "view",
      "type": "function",
      "constant": true
    },
    {
      "inputs": [
        {
          "internalType": "string",
          "name": "registerNumber",
          "type": "string"
        }
      ],
      "name": "getCertificateRegisterNumber",
      "outputs": [
        {
          "internalType": "string",
          "name": "",
          "type": "string"
        }
      ],
      "stateMutability": "view",
      "type": "function",
      "constant": true
    },
    {
      "inputs": [
        {
          "internalType": "string",
          "name": "registerNumber",
          "type": "string"
        }
      ],
      "name": "getCertificateInstitution",
      "outputs": [
        {
          "internalType": "string",
          "name": "",
          "type": "string"
        }
      ],
      "stateMutability": "view",
      "type": "function",
      "constant": true
    },
    {
      "inputs": [
        {
          "internalType": "string",
          "name": "registerNumber",
          "type": "string"
        }
      ],
      "name": "getCertificateYearOfAdmission",
      "outputs": [
        {
          "internalType": "uint16",
          "name": "",
          "type": "uint16"
        }
      ],
      "stateMutability": "view",
      "type": "function",
      "constant": true
    },
    {
      "inputs": [
        {
          "internalType": "string",
          "name": "registerNumber",
          "type": "string"
        }
      ],
      "name": "getCertificateMonthAndYearOfPassing",
      "outputs": [
        {
          "internalType": "string",
          "name": "",
          "type": "string"
        }
      ],
      "stateMutability": "view",
      "type": "function",
      "constant": true
    },
    {
      "inputs": [
        {
          "internalType": "string",
          "name": "registerNumber",
          "type": "string"
        }
      ],
      "name": "getCertificateCGPA",
      "outputs": [
        {
          "internalType": "string",
          "name": "",
          "type": "string"
        }
      ],
      "stateMutability": "view",
      "type": "function",
      "constant": true
    },
    {
      "inputs": [
        {
          "internalType": "string",
          "name": "registerNumber",
          "type": "string"
        },
        {
          "internalType": "uint8",
          "name": "semesterIndex",
          "type": "uint8"
        },
        {
          "internalType": "string",
          "name": "subjectName",
          "type": "string"
        }
      ],
      "name": "getSubjectCredits",
      "outputs": [
        {
          "internalType": "uint8",
          "name": "",
          "type": "uint8"
        }
      ],
      "stateMutability": "view",
      "type": "function",
      "constant": true
    },
    {
      "inputs": [
        {
          "internalType": "string",
          "name": "registerNumber",
          "type": "string"
        },
        {
          "internalType": "uint8",
          "name": "semesterIndex",
          "type": "uint8"
        },
        {
          "internalType": "string",
          "name": "subjectName",
          "type": "string"
        }
      ],
      "name": "getSubjectGrade",
      "outputs": [
        {
          "internalType": "string",
          "name": "",
          "type": "string"
        }
      ],
      "stateMutability": "view",
      "type": "function",
      "constant": true
    },
    {
      "inputs": [
        {
          "internalType": "string",
          "name": "registerNumber",
          "type": "string"
        },
        {
          "internalType": "uint8",
          "name": "semesterIndex",
          "type": "uint8"
        },
        {
          "internalType": "string",
          "name": "subjectName",
          "type": "string"
        }
      ],
      "name": "getSubjectExamMonth",
      "outputs": [
        {
          "internalType": "string",
          "name": "",
          "type": "string"
        }
      ],
      "stateMutability": "view",
      "type": "function",
      "constant": true
    },
    {
      "inputs": [
        {
          "internalType": "string",
          "name": "registerNumber",
          "type": "string"
        },
        {
          "internalType": "uint8",
          "name": "semesterIndex",
          "type": "uint8"
        },
        {
          "internalType": "string",
          "name": "subjectName",
          "type": "string"
        }
      ],
      "name": "getSubjectExamYear",
      "outputs": [
        {
          "internalType": "uint16",
          "name": "",
          "type": "uint16"
        }
      ],
      "stateMutability": "view",
      "type": "function",
      "constant": true
    },
    {
      "inputs": [
        {
          "internalType": "string",
          "name": "registerNumber",
          "type": "string"
        },
        {
          "internalType": "uint8",
          "name": "semesterIndex",
          "type": "uint8"
        }
      ],
      "name": "getSubjectNames",
      "outputs": [
        {
          "internalType": "string[]",
          "name": "",
          "type": "string[]"
        }
      ],
      "stateMutability": "view",
      "type": "function",
      "constant": true
    }
  ],
  "bytecode": "0x608060405234801561001057600080fd5b50611efc806100206000396000f3fe608060405234801561001057600080fd5b50600436106100cf5760003560e01c8063acc30fd41161008c578063b64e685e11610066578063b64e685e14610270578063ca84cd65146102a0578063cd87d5cf146102d0578063d30d538314610300576100cf565b8063acc30fd4146101e0578063b0d064e914610210578063b14b18b014610240576100cf565b8063334cdc9e146100d457806336b73fd8146101045780638a56fa1e1461012057806397263fc414610150578063a46e325714610180578063a476081c146101b0575b600080fd5b6100ee60048036038101906100e99190610fde565b610330565b6040516100fb9190611086565b60405180910390f35b61011e600480360381019061011991906115dc565b6103a3565b005b61013a600480360381019061013591906117e8565b6106f8565b60405161014791906118b0565b60405180910390f35b61016a60048036038101906101659190610fde565b6107ab565b60405161017791906118e1565b60405180910390f35b61019a600480360381019061019591906118fc565b61081d565b6040516101a79190611a64565b60405180910390f35b6101ca60048036038101906101c591906117e8565b610932565b6040516101d791906118b0565b60405180910390f35b6101fa60048036038101906101f591906117e8565b6109e5565b60405161020791906118b0565b60405180910390f35b61022a600480360381019061022591906117e8565b610a98565b6040516102379190611086565b60405180910390f35b61025a600480360381019061025591906117e8565b610ad0565b60405161026791906118b0565b60405180910390f35b61028a60048036038101906102859190610fde565b610b83565b60405161029791906118b0565b60405180910390f35b6102ba60048036038101906102b591906117e8565b610c71565b6040516102c791906118b0565b60405180910390f35b6102ea60048036038101906102e591906117e8565b610d24565b6040516102f79190611aa1565b60405180910390f35b61031a60048036038101906103159190610fde565b610d5d565b60405161032791906118b0565b60405180910390f35b600080846040516103419190611af8565b908152602001604051809103902060060160008460ff1660ff1681526020019081526020016000206000018260405161037a9190611af8565b908152602001604051809103902060040160009054906101000a900461ffff1690509392505050565b6000808c6040516103b49190611af8565b9081526020016040518091039020905060008190508c8160010190816103da9190611d25565b508b8160000190816103ec9190611d25565b508a8160020190816103fe9190611d25565b50898160030160006101000a81548161ffff021916908361ffff1602179055508881600401908161042f9190611d25565b50878160050190816104419190611d25565b5060005b87518160ff1610156106e85760008260060160008360ff1660ff168152602001908152602001600020905060005b898360ff168151811061048957610488611df7565b5b6020026020010151518110156106d35760008a8460ff16815181106104b1576104b0611df7565b5b602002602001015182815181106104cb576104ca611df7565b5b602002602001015190506040518060a001604052808281526020018b8660ff16815181106104fc576104fb611df7565b5b6020026020010151848151811061051657610515611df7565b5b602002602001015160ff1681526020018a8660ff168151811061053c5761053b611df7565b5b6020026020010151848151811061055657610555611df7565b5b60200260200101518152602001898660ff168151811061057957610578611df7565b5b6020026020010151848151811061059357610592611df7565b5b60200260200101518152602001888660ff16815181106105b6576105b5611df7565b5b602002602001015184815181106105d0576105cf611df7565b5b602002602001015161ffff1681525083600001826040516105f19190611af8565b908152602001604051809103902060008201518160000190816106149190611d25565b5060208201518160010160006101000a81548160ff021916908360ff160217905550604082015181600201908161064b9190611d25565b5060608201518160030190816106619190611d25565b5060808201518160040160006101000a81548161ffff021916908361ffff16021790555090505082600101819080600181540180825580915050600190039060005260206000200160009091909190915090816106be9190611d25565b505080806106cb90611e55565b915050610473565b505080806106e090611e9d565b915050610445565b5050505050505050505050505050565b606060008260405161070a9190611af8565b9081526020016040518091039020600201805461072690611b3e565b80601f016020809104026020016040519081016040528092919081815260200182805461075290611b3e565b801561079f5780601f106107745761010080835404028352916020019161079f565b820191906000526020600020905b81548152906001019060200180831161078257829003601f168201915b50505050509050919050565b600080846040516107bc9190611af8565b908152602001604051809103902060060160008460ff1660ff168152602001908152602001600020600001826040516107f59190611af8565b908152602001604051809103902060010160009054906101000a900460ff1690509392505050565b606060008360405161082f9190611af8565b908152602001604051809103902060060160008360ff1660ff168152602001908152602001600020600101805480602002602001604051908101604052809291908181526020016000905b8282101561092657838290600052602060002001805461089990611b3e565b80601f01602080910402602001604051908101604052809291908181526020018280546108c590611b3e565b80156109125780601f106108e757610100808354040283529160200191610912565b820191906000526020600020905b8154815290600101906020018083116108f557829003601f168201915b50505050508152602001906001019061087a565b50505050905092915050565b60606000826040516109449190611af8565b9081526020016040518091039020600101805461096090611b3e565b80601f016020809104026020016040519081016040528092919081815260200182805461098c90611b3e565b80156109d95780601f106109ae576101008083540402835291602001916109d9565b820191906000526020600020905b8154815290600101906020018083116109bc57829003601f168201915b50505050509050919050565b60606000826040516109f79190611af8565b90815260200160405180910390206005018054610a1390611b3e565b80601f0160208091040260200160405190810160405280929190818152602001828054610a3f90611b3e565b8015610a8c5780601f10610a6157610100808354040283529160200191610a8c565b820191906000526020600020905b815481529060010190602001808311610a6f57829003601f168201915b50505050509050919050565b60008082604051610aa99190611af8565b908152602001604051809103902060030160009054906101000a900461ffff169050919050565b6060600082604051610ae29190611af8565b90815260200160405180910390206004018054610afe90611b3e565b80601f0160208091040260200160405190810160405280929190818152602001828054610b2a90611b3e565b8015610b775780601f10610b4c57610100808354040283529160200191610b77565b820191906000526020600020905b815481529060010190602001808311610b5a57829003601f168201915b50505050509050919050565b6060600084604051610b959190611af8565b908152602001604051809103902060060160008460ff1660ff16815260200190815260200160002060000182604051610bce9190611af8565b90815260200160405180910390206002018054610bea90611b3e565b80601f0160208091040260200160405190810160405280929190818152602001828054610c1690611b3e565b8015610c635780601f10610c3857610100808354040283529160200191610c63565b820191906000526020600020905b815481529060010190602001808311610c4657829003601f168201915b505050505090509392505050565b6060600082604051610c839190611af8565b90815260200160405180910390206000018054610c9f90611b3e565b80601f0160208091040260200160405190810160405280929190818152602001828054610ccb90611b3e565b8015610d185780601f10610ced57610100808354040283529160200191610d18565b820191906000526020600020905b815481529060010190602001808311610cfb57829003601f168201915b50505050509050919050565b600080600083604051610d379190611af8565b90815260200160405180910390206001018054610d5390611b3e565b9050119050919050565b6060600084604051610d6f9190611af8565b908152602001604051809103902060060160008460ff1660ff16815260200190815260200160002060000182604051610da89190611af8565b90815260200160405180910390206003018054610dc490611b3e565b80601f0160208091040260200160405190810160405280929190818152602001828054610df090611b3e565b8015610e3d5780601f10610e1257610100808354040283529160200191610e3d565b820191906000526020600020905b815481529060010190602001808311610e2057829003601f168201915b505050505090509392505050565b6000604051905090565b600080fd5b600080fd5b600080fd5b600080fd5b6000601f19601f8301169050919050565b7f4e487b7100000000000000000000000000000000000000000000000000000000600052604160045260246000fd5b610eb282610e69565b810181811067ffffffffffffffff82111715610ed157610ed0610e7a565b5b80604052505050565b6000610ee4610e4b565b9050610ef08282610ea9565b919050565b600067ffffffffffffffff821115610f1057610f0f610e7a565b5b610f1982610e69565b9050602081019050919050565b82818337600083830152505050565b6000610f48610f4384610ef5565b610eda565b905082815260208101848484011115610f6457610f63610e64565b5b610f6f848285610f26565b509392505050565b600082601f830112610f8c57610f8b610e5f565b5b8135610f9c848260208601610f35565b91505092915050565b600060ff82169050919050565b610fbb81610fa5565b8114610fc657600080fd5b50565b600081359050610fd881610fb2565b92915050565b600080600060608486031215610ff757610ff6610e55565b5b600084013567ffffffffffffffff81111561101557611014610e5a565b5b61102186828701610f77565b935050602061103286828701610fc9565b925050604084013567ffffffffffffffff81111561105357611052610e5a565b5b61105f86828701610f77565b9150509250925092565b600061ffff82169050919050565b61108081611069565b82525050565b600060208201905061109b6000830184611077565b92915050565b6110aa81611069565b81146110b557600080fd5b50565b6000813590506110c7816110a1565b92915050565b600067ffffffffffffffff8211156110e8576110e7610e7a565b5b602082029050602081019050919050565b600080fd5b600067ffffffffffffffff82111561111957611118610e7a565b5b602082029050602081019050919050565b600061113d611138846110fe565b610eda565b905080838252602082019050602084028301858111156111605761115f6110f9565b5b835b818110156111a757803567ffffffffffffffff81111561118557611184610e5f565b5b8086016111928982610f77565b85526020850194505050602081019050611162565b5050509392505050565b600082601f8301126111c6576111c5610e5f565b5b81356111d684826020860161112a565b91505092915050565b60006111f26111ed846110cd565b610eda565b90508083825260208201905060208402830185811115611215576112146110f9565b5b835b8181101561125c57803567ffffffffffffffff81111561123a57611239610e5f565b5b80860161124789826111b1565b85526020850194505050602081019050611217565b5050509392505050565b600082601f83011261127b5761127a610e5f565b5b813561128b8482602086016111df565b91505092915050565b600067ffffffffffffffff8211156112af576112ae610e7a565b5b602082029050602081019050919050565b600067ffffffffffffffff8211156112db576112da610e7a565b5b602082029050602081019050919050565b60006112ff6112fa846112c0565b610eda565b90508083825260208201905060208402830185811115611322576113216110f9565b5b835b8181101561134b57806113378882610fc9565b845260208401935050602081019050611324565b5050509392505050565b600082601f83011261136a57611369610e5f565b5b813561137a8482602086016112ec565b91505092915050565b600061139661139184611294565b610eda565b905080838252602082019050602084028301858111156113b9576113b86110f9565b5b835b8181101561140057803567ffffffffffffffff8111156113de576113dd610e5f565b5b8086016113eb8982611355565b855260208501945050506020810190506113bb565b5050509392505050565b600082601f83011261141f5761141e610e5f565b5b813561142f848260208601611383565b91505092915050565b600067ffffffffffffffff82111561145357611452610e7a565b5b602082029050602081019050919050565b600067ffffffffffffffff82111561147f5761147e610e7a565b5b602082029050602081019050919050565b60006114a361149e84611464565b610eda565b905080838252602082019050602084028301858111156114c6576114c56110f9565b5b835b818110156114ef57806114db88826110b8565b8452602084019350506020810190506114c8565b5050509392505050565b600082601f83011261150e5761150d610e5f565b5b813561151e848260208601611490565b91505092915050565b600061153a61153584611438565b610eda565b9050808382526020820190506020840283018581111561155d5761155c6110f9565b5b835b818110156115a457803567ffffffffffffffff81111561158257611581610e5f565b5b80860161158f89826114f9565b8552602085019450505060208101905061155f565b5050509392505050565b600082601f8301126115c3576115c2610e5f565b5b81356115d3848260208601611527565b91505092915050565b60008060008060008060008060008060006101608c8e03121561160257611601610e55565b5b60008c013567ffffffffffffffff8111156116205761161f610e5a565b5b61162c8e828f01610f77565b9b505060208c013567ffffffffffffffff81111561164d5761164c610e5a565b5b6116598e828f01610f77565b9a505060408c013567ffffffffffffffff81111561167a57611679610e5a565b5b6116868e828f01610f77565b99505060606116978e828f016110b8565b98505060808c013567ffffffffffffffff8111156116b8576116b7610e5a565b5b6116c48e828f01610f77565b97505060a08c013567ffffffffffffffff8111156116e5576116e4610e5a565b5b6116f18e828f01610f77565b96505060c08c013567ffffffffffffffff81111561171257611711610e5a565b5b61171e8e828f01611266565b95505060e08c013567ffffffffffffffff81111561173f5761173e610e5a565b5b61174b8e828f0161140a565b9450506101008c013567ffffffffffffffff81111561176d5761176c610e5a565b5b6117798e828f01611266565b9350506101208c013567ffffffffffffffff81111561179b5761179a610e5a565b5b6117a78e828f01611266565b9250506101408c013567ffffffffffffffff8111156117c9576117c8610e5a565b5b6117d58e828f016115ae565b9150509295989b509295989b9093969950565b6000602082840312156117fe576117fd610e55565b5b600082013567ffffffffffffffff81111561181c5761181b610e5a565b5b61182884828501610f77565b91505092915050565b600081519050919050565b600082825260208201905092915050565b60005b8381101561186b578082015181840152602081019050611850565b60008484015250505050565b600061188282611831565b61188c818561183c565b935061189c81856020860161184d565b6118a581610e69565b840191505092915050565b600060208201905081810360008301526118ca8184611877565b905092915050565b6118db81610fa5565b82525050565b60006020820190506118f660008301846118d2565b92915050565b6000806040838503121561191357611912610e55565b5b600083013567ffffffffffffffff81111561193157611930610e5a565b5b61193d85828601610f77565b925050602061194e85828601610fc9565b9150509250929050565b600081519050919050565b600082825260208201905092915050565b6000819050602082019050919050565b600082825260208201905092915050565b60006119a082611831565b6119aa8185611984565b93506119ba81856020860161184d565b6119c381610e69565b840191505092915050565b60006119da8383611995565b905092915050565b6000602082019050919050565b60006119fa82611958565b611a048185611963565b935083602082028501611a1685611974565b8060005b85811015611a525784840389528151611a3385826119ce565b9450611a3e836119e2565b925060208a01995050600181019050611a1a565b50829750879550505050505092915050565b60006020820190508181036000830152611a7e81846119ef565b905092915050565b60008115159050919050565b611a9b81611a86565b82525050565b6000602082019050611ab66000830184611a92565b92915050565b600081905092915050565b6000611ad282611831565b611adc8185611abc565b9350611aec81856020860161184d565b80840191505092915050565b6000611b048284611ac7565b915081905092915050565b7f4e487b7100000000000000000000000000000000000000000000000000000000600052602260045260246000fd5b60006002820490506001821680611b5657607f821691505b602082108103611b6957611b68611b0f565b5b50919050565b60008190508160005260206000209050919050565b60006020601f8301049050919050565b600082821b905092915050565b600060088302611bd17fffffffffffffffffffffffffffffffffffffffffffffffffffffffffffffffff82611b94565b611bdb8683611b94565b95508019841693508086168417925050509392505050565b6000819050919050565b6000819050919050565b6000611c22611c1d611c1884611bf3565b611bfd565b611bf3565b9050919050565b6000819050919050565b611c3c83611c07565b611c50611c4882611c29565b848454611ba1565b825550505050565b600090565b611c65611c58565b611c70818484611c33565b505050565b5b81811015611c9457611c89600082611c5d565b600181019050611c76565b5050565b601f821115611cd957611caa81611b6f565b611cb384611b84565b81016020851015611cc2578190505b611cd6611cce85611b84565b830182611c75565b50505b505050565b600082821c905092915050565b6000611cfc60001984600802611cde565b1980831691505092915050565b6000611d158383611ceb565b9150826002028217905092915050565b611d2e82611831565b67ffffffffffffffff811115611d4757611d46610e7a565b5b611d518254611b3e565b611d5c828285611c98565b600060209050601f831160018114611d8f5760008415611d7d578287015190505b611d878582611d09565b865550611def565b601f198416611d9d86611b6f565b60005b82811015611dc557848901518255600182019150602085019450602081019050611da0565b86831015611de25784890151611dde601f891682611ceb565b8355505b6001600288020188555050505b505050505050565b7f4e487b7100000000000000000000000000000000000000000000000000000000600052603260045260246000fd5b7f4e487b7100000000000000000000000000000000000000000000000000000000600052601160045260246000fd5b6000611e6082611bf3565b91507fffffffffffffffffffffffffffffffffffffffffffffffffffffffffffffffff8203611e9257611e91611e26565b5b600182019050919050565b6000611ea882610fa5565b915060ff8203611ebb57611eba611e26565b5b60018201905091905056fea26469706673582212201b76c5a789e276c110494060f7ebee6f7ab4682719a0cff8c58e76571690249e64736f6c63430008130033",
  "immutableReferences": {},
  "source": "// SPDX-License-Identifier: MIT\r\npragma solidity ^0.8.0;\r\n\r\ncontract CertificateContract {\r\n    struct Subject {\r\n        string name;\r\n        uint8 credits;\r\n        string grade;\r\n        string examMonth;\r\n        uint16 examYear;\r\n    }\r\n\r\n    struct Semester {\r\n        mapping(string => Subject) subjects;\r\n        string[] subjectNames; // New array to store subject names\r\n    }\r\n\r\n    struct Certificate {\r\n        string studentName;\r\n        string registerNumber;\r\n        string institution;\r\n        uint16 yearOfAdmission;\r\n        string monthAndYearOfPassing;\r\n        string cgpa;\r\n        mapping(uint8 => Semester) semesters;\r\n    }\r\n\r\n    mapping(string => Certificate) certificates;\r\n        function checkCertificateExists(string memory registerNumber) external view returns (bool) {\r\n        return bytes(certificates[registerNumber].registerNumber).length > 0;\r\n    }\r\n\r\n\r\n    function issueCertificate(\r\n        string memory registerNumber,\r\n        string memory studentName,\r\n        string memory institution,\r\n        uint16 yearOfAdmission,\r\n        string memory monthAndYearOfPassing,\r\n        string memory cgpa,\r\n        string[][] memory subjectNames,\r\n        uint8[][] memory subjectCredits,\r\n        string[][] memory subjectGrades,\r\n        string[][] memory subjectExamMonths,\r\n        uint16[][] memory subjectExamYears\r\n    ) external {\r\n        Certificate storage certificate = certificates[registerNumber];\r\n        Certificate storage cert = certificate; // Temporary variable to reduce stack depth\r\n\r\n        cert.registerNumber = registerNumber;\r\n        cert.studentName = studentName;\r\n        cert.institution = institution;\r\n        cert.yearOfAdmission = yearOfAdmission;\r\n        cert.monthAndYearOfPassing = monthAndYearOfPassing;\r\n        cert.cgpa = cgpa;\r\n\r\n        for (uint8 i = 0; i < subjectNames.length; i++) {\r\n            Semester storage semester = cert.semesters[i];\r\n            for (uint256 j = 0; j < subjectNames[i].length; j++) {\r\n                string memory subjectName = subjectNames[i][j];\r\n                semester.subjects[subjectName] = Subject(\r\n                    subjectName,\r\n                    subjectCredits[i][j],\r\n                    subjectGrades[i][j],\r\n                    subjectExamMonths[i][j],\r\n                    subjectExamYears[i][j]\r\n                );\r\n                semester.subjectNames.push(subjectName); // Store subject names in the array\r\n            }\r\n        }\r\n    }\r\n\r\n    function getCertificateStudentName(string memory registerNumber) external view returns (string memory) {\r\n        return certificates[registerNumber].studentName;\r\n    }\r\n\r\n    function getCertificateRegisterNumber(string memory registerNumber) external view returns (string memory) {\r\n        return certificates[registerNumber].registerNumber;\r\n    }\r\n\r\n    function getCertificateInstitution(string memory registerNumber) external view returns (string memory) {\r\n        return certificates[registerNumber].institution;\r\n    }\r\n\r\n    function getCertificateYearOfAdmission(string memory registerNumber) external view returns (uint16) {\r\n        return certificates[registerNumber].yearOfAdmission;\r\n    }\r\n\r\n    function getCertificateMonthAndYearOfPassing(string memory registerNumber) external view returns (string memory) {\r\n        return certificates[registerNumber].monthAndYearOfPassing;\r\n    }\r\n\r\n    function getCertificateCGPA(string memory registerNumber) external view returns (string memory) {\r\n        return certificates[registerNumber].cgpa;\r\n    }\r\n\r\n    function getSubjectCredits(\r\n        string memory registerNumber,\r\n        uint8 semesterIndex,\r\n        string memory subjectName\r\n    ) external view returns (uint8) {\r\n        return certificates[registerNumber].semesters[semesterIndex].subjects[subjectName].credits;\r\n    }\r\n\r\n    function getSubjectGrade(\r\n        string memory registerNumber,\r\n        uint8 semesterIndex,\r\n        string memory subjectName\r\n    ) external view returns (string memory) {\r\n        return certificates[registerNumber].semesters[semesterIndex].subjects[subjectName].grade;\r\n    }\r\n\r\n    function getSubjectExamMonth(\r\n        string memory registerNumber,\r\n        uint8 semesterIndex,\r\n        string memory subjectName\r\n    ) external view returns (string memory) {\r\n        return certificates[registerNumber].semesters[semesterIndex].subjects[subjectName].examMonth;\r\n    }\r\n\r\n    function getSubjectExamYear(\r\n        string memory registerNumber,\r\n        uint8 semesterIndex,\r\n        string memory subjectName\r\n    ) external view returns (uint16) {\r\n        return certificates[registerNumber].semesters[semesterIndex].subjects[subjectName].examYear;\r\n    }\r\n\r\n    function getSubjectNames(string memory registerNumber, uint8 semesterIndex)\r\n        external\r\n        view\r\n        returns (string[] memory)\r\n    {\r\n        return certificates[registerNumber].semesters[semesterIndex].subjectNames;\r\n    }\r\n}\r\n",
  "sourcePath": "C:\\Users\\sajia\\Desktop\\S6-Mini-Project\\truffle\\contracts\\CertificateContract.sol",
  "compiler": {
    "name": "solc",
    "version": "0.8.19+commit.7dd6d404.Emscripten.clang"
  },
  "schemaVersion": "3.4.14",
  "updatedAt": "2023-07-01T02:34:30.414Z",
  "networkType": "ethereum",
  "devdoc": {
    "kind": "dev",
    "methods": {},
    "version": 1
  },
  "userdoc": {
    "kind": "user",
    "methods": {},
    "version": 1
  }
}