{
  "contractName": "CertificateContract",
  "abi": [
    {
      "inputs": [
        {
          "internalType": "string",
          "name": "registerNumber",
          "type": "string"
        },
        {
          "internalType": "string",
          "name": "studentName",
          "type": "string"
        },
        {
          "internalType": "string",
          "name": "institution",
          "type": "string"
        },
        {
          "internalType": "uint16",
          "name": "yearOfAdmission",
          "type": "uint16"
        },
        {
          "internalType": "uint16",
          "name": "monthAndYearOfPassing",
          "type": "uint16"
        },
        {
          "internalType": "uint8",
          "name": "cgpa",
          "type": "uint8"
        },
        {
          "internalType": "string[][]",
          "name": "subjectNames",
          "type": "string[][]"
        },
        {
          "internalType": "uint8[][]",
          "name": "subjectCredits",
          "type": "uint8[][]"
        },
        {
          "internalType": "uint8[][]",
          "name": "subjectGrades",
          "type": "uint8[][]"
        },
        {
          "internalType": "uint16[]",
          "name": "subjectExamMonths",
          "type": "uint16[]"
        },
        {
          "internalType": "uint16[]",
          "name": "subjectExamYears",
          "type": "uint16[]"
        }
      ],
      "name": "issueCertificate",
      "outputs": [],
      "stateMutability": "nonpayable",
      "type": "function"
    },
    {
      "inputs": [
        {
          "internalType": "string",
          "name": "registerNumber",
          "type": "string"
        }
      ],
      "name": "getCertificateStudentName",
      "outputs": [
        {
          "internalType": "string",
          "name": "",
          "type": "string"
        }
      ],
      "stateMutability": "view",
      "type": "function",
      "constant": true
    },
    {
      "inputs": [
        {
          "internalType": "string",
          "name": "registerNumber",
          "type": "string"
        }
      ],
      "name": "getCertificateRegisterNumber",
      "outputs": [
        {
          "internalType": "string",
          "name": "",
          "type": "string"
        }
      ],
      "stateMutability": "view",
      "type": "function",
      "constant": true
    },
    {
      "inputs": [
        {
          "internalType": "string",
          "name": "registerNumber",
          "type": "string"
        }
      ],
      "name": "getCertificateInstitution",
      "outputs": [
        {
          "internalType": "string",
          "name": "",
          "type": "string"
        }
      ],
      "stateMutability": "view",
      "type": "function",
      "constant": true
    },
    {
      "inputs": [
        {
          "internalType": "string",
          "name": "registerNumber",
          "type": "string"
        }
      ],
      "name": "getCertificateYearOfAdmission",
      "outputs": [
        {
          "internalType": "uint16",
          "name": "",
          "type": "uint16"
        }
      ],
      "stateMutability": "view",
      "type": "function",
      "constant": true
    },
    {
      "inputs": [
        {
          "internalType": "string",
          "name": "registerNumber",
          "type": "string"
        }
      ],
      "name": "getCertificateMonthAndYearOfPassing",
      "outputs": [
        {
          "internalType": "uint16",
          "name": "",
          "type": "uint16"
        }
      ],
      "stateMutability": "view",
      "type": "function",
      "constant": true
    },
    {
      "inputs": [
        {
          "internalType": "string",
          "name": "registerNumber",
          "type": "string"
        }
      ],
      "name": "getCertificateCGPA",
      "outputs": [
        {
          "internalType": "uint8",
          "name": "",
          "type": "uint8"
        }
      ],
      "stateMutability": "view",
      "type": "function",
      "constant": true
    },
    {
      "inputs": [
        {
          "internalType": "string",
          "name": "registerNumber",
          "type": "string"
        },
        {
          "internalType": "uint8",
          "name": "semesterIndex",
          "type": "uint8"
        },
        {
          "internalType": "string",
          "name": "subjectName",
          "type": "string"
        }
      ],
      "name": "getSubjectCredits",
      "outputs": [
        {
          "internalType": "uint8",
          "name": "",
          "type": "uint8"
        }
      ],
      "stateMutability": "view",
      "type": "function",
      "constant": true
    },
    {
      "inputs": [
        {
          "internalType": "string",
          "name": "registerNumber",
          "type": "string"
        },
        {
          "internalType": "uint8",
          "name": "semesterIndex",
          "type": "uint8"
        },
        {
          "internalType": "string",
          "name": "subjectName",
          "type": "string"
        }
      ],
      "name": "getSubjectGrade",
      "outputs": [
        {
          "internalType": "uint8",
          "name": "",
          "type": "uint8"
        }
      ],
      "stateMutability": "view",
      "type": "function",
      "constant": true
    },
    {
      "inputs": [
        {
          "internalType": "string",
          "name": "registerNumber",
          "type": "string"
        },
        {
          "internalType": "uint8",
          "name": "semesterIndex",
          "type": "uint8"
        },
        {
          "internalType": "string",
          "name": "subjectName",
          "type": "string"
        }
      ],
      "name": "getSubjectExamMonth",
      "outputs": [
        {
          "internalType": "uint16",
          "name": "",
          "type": "uint16"
        }
      ],
      "stateMutability": "view",
      "type": "function",
      "constant": true
    },
    {
      "inputs": [
        {
          "internalType": "string",
          "name": "registerNumber",
          "type": "string"
        },
        {
          "internalType": "uint8",
          "name": "semesterIndex",
          "type": "uint8"
        },
        {
          "internalType": "string",
          "name": "subjectName",
          "type": "string"
        }
      ],
      "name": "getSubjectExamYear",
      "outputs": [
        {
          "internalType": "uint16",
          "name": "",
          "type": "uint16"
        }
      ],
      "stateMutability": "view",
      "type": "function",
      "constant": true
    }
  ],
  "bytecode": "0x608060405234801561001057600080fd5b5061185e806100206000396000f3fe608060405234801561001057600080fd5b50600436106100a95760003560e01c8063acc30fd411610071578063acc30fd41461018a578063b0d064e9146101ba578063b14b18b0146101ea578063b64e685e1461021a578063ca84cd651461024a578063d30d53831461027a576100a9565b8063334cdc9e146100ae5780634d7c0c47146100de5780638a56fa1e146100fa57806397263fc41461012a578063a476081c1461015a575b600080fd5b6100c860048036038101906100c39190610c19565b6102aa565b6040516100d59190610cc1565b60405180910390f35b6100f860048036038101906100f39190611136565b61031d565b005b610114600480360381019061010f919061130a565b61066f565b60405161012191906113d2565b60405180910390f35b610144600480360381019061013f9190610c19565b610722565b6040516101519190611403565b60405180910390f35b610174600480360381019061016f919061130a565b610794565b60405161018191906113d2565b60405180910390f35b6101a4600480360381019061019f919061130a565b610847565b6040516101b19190611403565b60405180910390f35b6101d460048036038101906101cf919061130a565b61087e565b6040516101e19190610cc1565b60405180910390f35b61020460048036038101906101ff919061130a565b6108b6565b6040516102119190610cc1565b60405180910390f35b610234600480360381019061022f9190610c19565b6108ee565b6040516102419190611403565b60405180910390f35b610264600480360381019061025f919061130a565b610960565b60405161027191906113d2565b60405180910390f35b610294600480360381019061028f9190610c19565b610a13565b6040516102a19190610cc1565b60405180910390f35b600080846040516102bb919061145a565b908152602001604051809103902060040160008460ff1660ff168152602001908152602001600020600001826040516102f4919061145a565b908152602001604051809103902060010160049054906101000a900461ffff1690509392505050565b6000808c60405161032e919061145a565b9081526020016040518091039020905060008190508c8160010190816103549190611687565b508b8160000190816103669190611687565b508a8160020190816103789190611687565b50898160030160006101000a81548161ffff021916908361ffff160217905550888160030160026101000a81548161ffff021916908361ffff160217905550878160030160066101000a81548160ff021916908360ff16021790555060005b87518160ff16101561065f5760008260040160008360ff1660ff168152602001908152602001600020905060005b898360ff168151811061041b5761041a611759565b5b60200260200101515181101561064a576040518060a001604052808b8560ff168151811061044c5761044b611759565b5b6020026020010151838151811061046657610465611759565b5b602002602001015181526020018a8560ff168151811061048957610488611759565b5b602002602001015183815181106104a3576104a2611759565b5b602002602001015160ff168152602001898560ff16815181106104c9576104c8611759565b5b602002602001015183815181106104e3576104e2611759565b5b602002602001015160ff168152602001888560ff168151811061050957610508611759565b5b602002602001015161ffff168152602001878560ff16815181106105305761052f611759565b5b602002602001015161ffff16815250826000018b8560ff168151811061055957610558611759565b5b6020026020010151838151811061057357610572611759565b5b6020026020010151604051610588919061145a565b908152602001604051809103902060008201518160000190816105ab9190611687565b5060208201518160010160006101000a81548160ff021916908360ff16021790555060408201518160010160016101000a81548160ff021916908360ff16021790555060608201518160010160026101000a81548161ffff021916908361ffff16021790555060808201518160010160046101000a81548161ffff021916908361ffff1602179055509050508080610642906117b7565b915050610405565b50508080610657906117ff565b9150506103d7565b5050505050505050505050505050565b6060600082604051610681919061145a565b9081526020016040518091039020600201805461069d906114a0565b80601f01602080910402602001604051908101604052809291908181526020018280546106c9906114a0565b80156107165780601f106106eb57610100808354040283529160200191610716565b820191906000526020600020905b8154815290600101906020018083116106f957829003601f168201915b50505050509050919050565b60008084604051610733919061145a565b908152602001604051809103902060040160008460ff1660ff1681526020019081526020016000206000018260405161076c919061145a565b908152602001604051809103902060010160009054906101000a900460ff1690509392505050565b60606000826040516107a6919061145a565b908152602001604051809103902060010180546107c2906114a0565b80601f01602080910402602001604051908101604052809291908181526020018280546107ee906114a0565b801561083b5780601f106108105761010080835404028352916020019161083b565b820191906000526020600020905b81548152906001019060200180831161081e57829003601f168201915b50505050509050919050565b60008082604051610858919061145a565b908152602001604051809103902060030160069054906101000a900460ff169050919050565b6000808260405161088f919061145a565b908152602001604051809103902060030160009054906101000a900461ffff169050919050565b600080826040516108c7919061145a565b908152602001604051809103902060030160029054906101000a900461ffff169050919050565b600080846040516108ff919061145a565b908152602001604051809103902060040160008460ff1660ff16815260200190815260200160002060000182604051610938919061145a565b908152602001604051809103902060010160019054906101000a900460ff1690509392505050565b6060600082604051610972919061145a565b9081526020016040518091039020600001805461098e906114a0565b80601f01602080910402602001604051908101604052809291908181526020018280546109ba906114a0565b8015610a075780601f106109dc57610100808354040283529160200191610a07565b820191906000526020600020905b8154815290600101906020018083116109ea57829003601f168201915b50505050509050919050565b60008084604051610a24919061145a565b908152602001604051809103902060040160008460ff1660ff16815260200190815260200160002060000182604051610a5d919061145a565b908152602001604051809103902060010160029054906101000a900461ffff1690509392505050565b6000604051905090565b600080fd5b600080fd5b600080fd5b600080fd5b6000601f19601f8301169050919050565b7f4e487b7100000000000000000000000000000000000000000000000000000000600052604160045260246000fd5b610aed82610aa4565b810181811067ffffffffffffffff82111715610b0c57610b0b610ab5565b5b80604052505050565b6000610b1f610a86565b9050610b2b8282610ae4565b919050565b600067ffffffffffffffff821115610b4b57610b4a610ab5565b5b610b5482610aa4565b9050602081019050919050565b82818337600083830152505050565b6000610b83610b7e84610b30565b610b15565b905082815260208101848484011115610b9f57610b9e610a9f565b5b610baa848285610b61565b509392505050565b600082601f830112610bc757610bc6610a9a565b5b8135610bd7848260208601610b70565b91505092915050565b600060ff82169050919050565b610bf681610be0565b8114610c0157600080fd5b50565b600081359050610c1381610bed565b92915050565b600080600060608486031215610c3257610c31610a90565b5b600084013567ffffffffffffffff811115610c5057610c4f610a95565b5b610c5c86828701610bb2565b9350506020610c6d86828701610c04565b925050604084013567ffffffffffffffff811115610c8e57610c8d610a95565b5b610c9a86828701610bb2565b9150509250925092565b600061ffff82169050919050565b610cbb81610ca4565b82525050565b6000602082019050610cd66000830184610cb2565b92915050565b610ce581610ca4565b8114610cf057600080fd5b50565b600081359050610d0281610cdc565b92915050565b600067ffffffffffffffff821115610d2357610d22610ab5565b5b602082029050602081019050919050565b600080fd5b600067ffffffffffffffff821115610d5457610d53610ab5565b5b602082029050602081019050919050565b6000610d78610d7384610d39565b610b15565b90508083825260208201905060208402830185811115610d9b57610d9a610d34565b5b835b81811015610de257803567ffffffffffffffff811115610dc057610dbf610a9a565b5b808601610dcd8982610bb2565b85526020850194505050602081019050610d9d565b5050509392505050565b600082601f830112610e0157610e00610a9a565b5b8135610e11848260208601610d65565b91505092915050565b6000610e2d610e2884610d08565b610b15565b90508083825260208201905060208402830185811115610e5057610e4f610d34565b5b835b81811015610e9757803567ffffffffffffffff811115610e7557610e74610a9a565b5b808601610e828982610dec565b85526020850194505050602081019050610e52565b5050509392505050565b600082601f830112610eb657610eb5610a9a565b5b8135610ec6848260208601610e1a565b91505092915050565b600067ffffffffffffffff821115610eea57610ee9610ab5565b5b602082029050602081019050919050565b600067ffffffffffffffff821115610f1657610f15610ab5565b5b602082029050602081019050919050565b6000610f3a610f3584610efb565b610b15565b90508083825260208201905060208402830185811115610f5d57610f5c610d34565b5b835b81811015610f865780610f728882610c04565b845260208401935050602081019050610f5f565b5050509392505050565b600082601f830112610fa557610fa4610a9a565b5b8135610fb5848260208601610f27565b91505092915050565b6000610fd1610fcc84610ecf565b610b15565b90508083825260208201905060208402830185811115610ff457610ff3610d34565b5b835b8181101561103b57803567ffffffffffffffff81111561101957611018610a9a565b5b8086016110268982610f90565b85526020850194505050602081019050610ff6565b5050509392505050565b600082601f83011261105a57611059610a9a565b5b813561106a848260208601610fbe565b91505092915050565b600067ffffffffffffffff82111561108e5761108d610ab5565b5b602082029050602081019050919050565b60006110b26110ad84611073565b610b15565b905080838252602082019050602084028301858111156110d5576110d4610d34565b5b835b818110156110fe57806110ea8882610cf3565b8452602084019350506020810190506110d7565b5050509392505050565b600082601f83011261111d5761111c610a9a565b5b813561112d84826020860161109f565b91505092915050565b60008060008060008060008060008060006101608c8e03121561115c5761115b610a90565b5b60008c013567ffffffffffffffff81111561117a57611179610a95565b5b6111868e828f01610bb2565b9b505060208c013567ffffffffffffffff8111156111a7576111a6610a95565b5b6111b38e828f01610bb2565b9a505060408c013567ffffffffffffffff8111156111d4576111d3610a95565b5b6111e08e828f01610bb2565b99505060606111f18e828f01610cf3565b98505060806112028e828f01610cf3565b97505060a06112138e828f01610c04565b96505060c08c013567ffffffffffffffff81111561123457611233610a95565b5b6112408e828f01610ea1565b95505060e08c013567ffffffffffffffff81111561126157611260610a95565b5b61126d8e828f01611045565b9450506101008c013567ffffffffffffffff81111561128f5761128e610a95565b5b61129b8e828f01611045565b9350506101208c013567ffffffffffffffff8111156112bd576112bc610a95565b5b6112c98e828f01611108565b9250506101408c013567ffffffffffffffff8111156112eb576112ea610a95565b5b6112f78e828f01611108565b9150509295989b509295989b9093969950565b6000602082840312156113205761131f610a90565b5b600082013567ffffffffffffffff81111561133e5761133d610a95565b5b61134a84828501610bb2565b91505092915050565b600081519050919050565b600082825260208201905092915050565b60005b8381101561138d578082015181840152602081019050611372565b60008484015250505050565b60006113a482611353565b6113ae818561135e565b93506113be81856020860161136f565b6113c781610aa4565b840191505092915050565b600060208201905081810360008301526113ec8184611399565b905092915050565b6113fd81610be0565b82525050565b600060208201905061141860008301846113f4565b92915050565b600081905092915050565b600061143482611353565b61143e818561141e565b935061144e81856020860161136f565b80840191505092915050565b60006114668284611429565b915081905092915050565b7f4e487b7100000000000000000000000000000000000000000000000000000000600052602260045260246000fd5b600060028204905060018216806114b857607f821691505b6020821081036114cb576114ca611471565b5b50919050565b60008190508160005260206000209050919050565b60006020601f8301049050919050565b600082821b905092915050565b6000600883026115337fffffffffffffffffffffffffffffffffffffffffffffffffffffffffffffffff826114f6565b61153d86836114f6565b95508019841693508086168417925050509392505050565b6000819050919050565b6000819050919050565b600061158461157f61157a84611555565b61155f565b611555565b9050919050565b6000819050919050565b61159e83611569565b6115b26115aa8261158b565b848454611503565b825550505050565b600090565b6115c76115ba565b6115d2818484611595565b505050565b5b818110156115f6576115eb6000826115bf565b6001810190506115d8565b5050565b601f82111561163b5761160c816114d1565b611615846114e6565b81016020851015611624578190505b611638611630856114e6565b8301826115d7565b50505b505050565b600082821c905092915050565b600061165e60001984600802611640565b1980831691505092915050565b6000611677838361164d565b9150826002028217905092915050565b61169082611353565b67ffffffffffffffff8111156116a9576116a8610ab5565b5b6116b382546114a0565b6116be8282856115fa565b600060209050601f8311600181146116f157600084156116df578287015190505b6116e9858261166b565b865550611751565b601f1984166116ff866114d1565b60005b8281101561172757848901518255600182019150602085019450602081019050611702565b868310156117445784890151611740601f89168261164d565b8355505b6001600288020188555050505b505050505050565b7f4e487b7100000000000000000000000000000000000000000000000000000000600052603260045260246000fd5b7f4e487b7100000000000000000000000000000000000000000000000000000000600052601160045260246000fd5b60006117c282611555565b91507fffffffffffffffffffffffffffffffffffffffffffffffffffffffffffffffff82036117f4576117f3611788565b5b600182019050919050565b600061180a82610be0565b915060ff820361181d5761181c611788565b5b60018201905091905056fea2646970667358221220a5c4bfc32fecfc769a6d5dc3b12ab8ee209df362b3f998f8190b1dbcad68243164736f6c63430008130033",
  "immutableReferences": {},
  "source": "// SPDX-License-Identifier: MIT\r\npragma solidity ^0.8.0;\r\n\r\ncontract CertificateContract {\r\n    struct Subject {\r\n        string name;\r\n        uint8 credits;\r\n        uint8 grade;\r\n        uint16 examMonth;\r\n        uint16 examYear;\r\n    }\r\n\r\n    struct Semester {\r\n        mapping(string => Subject) subjects;\r\n    }\r\n\r\n    struct Certificate {\r\n        string studentName;\r\n        string registerNumber;\r\n        string institution;\r\n        uint16 yearOfAdmission;\r\n        uint16 monthAndYearOfPassing;\r\n        uint16 totalCredits;\r\n        uint8 cgpa;\r\n        mapping(uint8 => Semester) semesters;\r\n    }\r\n\r\n    mapping(string => Certificate) certificates;\r\n\r\n    function issueCertificate(\r\n    string memory registerNumber,\r\n    string memory studentName,\r\n    string memory institution,\r\n    uint16 yearOfAdmission,\r\n    uint16 monthAndYearOfPassing,\r\n    uint8 cgpa,\r\n    string[][] memory subjectNames,\r\n    uint8[][] memory subjectCredits,\r\n    uint8[][] memory subjectGrades,\r\n    uint16[] memory subjectExamMonths,\r\n    uint16[] memory subjectExamYears\r\n) external {\r\n    Certificate storage certificate = certificates[registerNumber];\r\n    Certificate storage cert = certificate; // Temporary variable to reduce stack depth\r\n\r\n    cert.registerNumber = registerNumber;\r\n    cert.studentName = studentName;\r\n    cert.institution = institution;\r\n    cert.yearOfAdmission = yearOfAdmission;\r\n    cert.monthAndYearOfPassing = monthAndYearOfPassing;\r\n    cert.cgpa = cgpa;\r\n\r\n    for (uint8 i = 0; i < subjectNames.length; i++) {\r\n        Semester storage semester = cert.semesters[i];\r\n        for (uint256 j = 0; j < subjectNames[i].length; j++) {\r\n            semester.subjects[subjectNames[i][j]] = Subject(\r\n                subjectNames[i][j],\r\n                subjectCredits[i][j],\r\n                subjectGrades[i][j],\r\n                subjectExamMonths[i],\r\n                subjectExamYears[i]\r\n            );\r\n        }\r\n    }\r\n}\r\n\r\n\r\n    function getCertificateStudentName(string memory registerNumber) external view returns (string memory) {\r\n        return certificates[registerNumber].studentName;\r\n    }\r\n\r\n    function getCertificateRegisterNumber(string memory registerNumber) external view returns (string memory) {\r\n        return certificates[registerNumber].registerNumber;\r\n    }\r\n\r\n    function getCertificateInstitution(string memory registerNumber) external view returns (string memory) {\r\n        return certificates[registerNumber].institution;\r\n    }\r\n\r\n\r\n    function getCertificateYearOfAdmission(string memory registerNumber) external view returns (uint16) {\r\n        return certificates[registerNumber].yearOfAdmission;\r\n    }\r\n\r\n\r\n    function getCertificateMonthAndYearOfPassing(string memory registerNumber) external view returns (uint16) {\r\n        return certificates[registerNumber].monthAndYearOfPassing;\r\n    }\r\n\r\n\r\n    function getCertificateCGPA(string memory registerNumber) external view returns (uint8) {\r\n        return certificates[registerNumber].cgpa;\r\n    }\r\n\r\n    function getSubjectCredits(\r\n        string memory registerNumber,\r\n        uint8 semesterIndex,\r\n        string memory subjectName\r\n    ) external view returns (uint8) {\r\n        return certificates[registerNumber].semesters[semesterIndex].subjects[subjectName].credits;\r\n    }\r\n\r\n    function getSubjectGrade(\r\n        string memory registerNumber,\r\n        uint8 semesterIndex,\r\n        string memory subjectName\r\n    ) external view returns (uint8) {\r\n        return certificates[registerNumber].semesters[semesterIndex].subjects[subjectName].grade;\r\n    }\r\n\r\n    function getSubjectExamMonth(\r\n        string memory registerNumber,\r\n        uint8 semesterIndex,\r\n        string memory subjectName\r\n    ) external view returns (uint16) {\r\n        return certificates[registerNumber].semesters[semesterIndex].subjects[subjectName].examMonth;\r\n    }\r\n\r\n    function getSubjectExamYear(\r\n        string memory registerNumber,\r\n        uint8 semesterIndex,\r\n        string memory subjectName\r\n    ) external view returns (uint16) {\r\n        return certificates[registerNumber].semesters[semesterIndex].subjects[subjectName].examYear;\r\n    }\r\n}\r\n",
  "sourcePath": "C:\\Users\\sajia\\Desktop\\S6-Mini-Project\\truffle\\contracts\\CertificateContract.sol",
  "compiler": {
    "name": "solc",
    "version": "0.8.19+commit.7dd6d404.Emscripten.clang"
  },
  "schemaVersion": "3.4.14",
  "updatedAt": "2023-06-11T04:30:01.777Z",
  "networkType": "ethereum",
  "devdoc": {
    "kind": "dev",
    "methods": {},
    "version": 1
  },
  "userdoc": {
    "kind": "user",
    "methods": {},
    "version": 1
  }
}